:100000000C9462000C948A000C948A000C948A0070
:100010000C948A000C948A000C948A000C948A0038
:100020000C948A000C948A000C948A000C94F706B5
:100030000C948A000C948A000C948A000C948A0018
:100040000C9455060C948A000C94C5060C949F06DB
:100050000C948A000C948A000C948A000C948A00F8
:100060000C948A000C948A000000000024002700F1
:100070002A0000000000250028002B0000000008D6
:10008000000201000003040700000000000000005F
:1000900000000000230026002900040404040404D6
:1000A0000404020202020202030303030303010227
:1000B00004081020408001020408102001020408F6
:1000C0001020B80711241FBECFEFD8E0DEBFCDBF90
:1000D00011E0A0E0B1E0EEE1FAE102C005900D927E
:1000E000AA37B107D9F722E0AAE7B1E001C01D9213
:1000F000A437B207E1F710E0C2E6D0E004C02197D0
:10010000FE010E94020DC136D107C9F70E945F08A7
:100110000C940D0D0C940000CF92DF92EF92FF92A1
:10012000DC01A03282E0B8070CF03EC0B7FD06C08B
:10013000A53BB1052CF0A4EBB0E002C0A0E0B0E01C
:100140008091470228E830E06901C81AD10887FD8C
:10015000D394CC0CDD1CCC0CDD1C0D2C000CEE085B
:10016000FF088091480228E532E0281B310987FD0D
:100170003395220F331F220F331FA901330F660B54
:10018000770B9A01AB012C193D094E095F090E94BA
:10019000F30A24EB30E040E050E00E94C90AC20EAE
:1001A000D31EE41EF51ED601909146029C3098F5B0
:1001B0008091470248E850E0481B510987FD53955C
:1001C000440F551F440F551FA417B5078CF080919D
:1001D000480228E532E0281B310987FD3395220FBC
:1001E000331F220F331FAD012A173B070CF4A9015F
:1001F00042505109440F551F2FB7F894892F90E0B2
:10020000FC01EE0FFF1F8E0F9F1FFC01EF5DFD4FE6
:10021000528341832FBFFF90EF90DF90CF900895DE
:10022000CF92DF92EF92FF92CF93DF93B091500283
:10023000882311F0AB2F01C0A0E08091510290E023
:10024000880F991F80579F4FC0905602D090570239
:10025000E0905802F090590220E030E0FC01C59196
:10026000D491E881EB23A90160E070E0EA130CC0AF
:100270002F5F3F4F4C155D056E057F0578F33FEF0F
:100280002FEF8FEF9FEF03C0322F252FCB01632F6E
:10029000722FDF91CF91FF90EF90DF90CF90089574
:1002A00090E0FC01E458FF4F2491FC01E255FF4F20
:1002B0003491FC01E656FF4FE491EE2309F43CC073
:1002C000222339F1233091F038F42130A9F0223083
:1002D00001F584B58F7D12C0273091F02830A1F050
:1002E0002430B9F4809180008F7D03C0809180001C
:1002F0008F77809380000DC084B58F7784BD09C04F
:100300008091B0008F7703C08091B0008F7D809383
:10031000B000F0E0EE0FFF1FEE58FF4FA591B49133
:100320009FB7F894611104C08C913095382302C0B6
:10033000EC913E2B3C939FBF0895CF93DF9390E0C9
:10034000FC01E255FF4F2491FC01E656FF4F8491DA
:10035000882361F190E0880F991FFC01E859FF4F55
:10036000C591D491FC01EE58FF4FA591B491611154
:1003700009C09FB7F8948881209582238883EC91E7
:100380002E230BC0623061F49FB7F8948881322F1E
:10039000309583238883EC912E2B2C939FBF06C02E
:1003A0008FB7F894E8812E2B28838FBFDF91CF91F0
:1003B00008958E3008F08E508770806480937C00A2
:1003C00080917A00806480937A0080917A0086FD23
:1003D000FCCF809178002091790090E0922B0895D5
:1003E0003FB7F89480917C0190917D01A0917E01AE
:1003F000B0917F0126B5A89B05C02F3F19F001964B
:10040000A11DB11D3FBFBA2FA92F982F8827820F9A
:10041000911DA11DB11DBC01CD0142E0660F771FEA
:10042000881F991F4A95D1F708958F929F92AF9296
:10043000BF92CF92DF92EF92FF926B017C010E94FC
:10044000F0014B015C01C114D104E104F104F1F0AD
:100450000E94F001DC01CB0188199909AA09BB09A6
:10046000883E9340A105B10570F321E0C21AD1087E
:10047000E108F10888EE880E83E0981EA11CB11CEB
:10048000C114D104E104F10419F7DDCFFF90EF901E
:10049000DF90CF90BF90AF909F908F900895CF92B4
:1004A000DF92EF92FF920F931F93CF93DF93CDB71D
:1004B000DEB7C054D1400FB6F894DEBF0FBECDBF3B
:1004C0002FB7F8948091800190918101A0918201D1
:1004D000B09183012FBF409152025091530260911D
:1004E0005402709155028C019D01041B150B260BC3
:1004F000370BB901A801403D57406105710518F45B
:1005000080915A02CAC08093520290935302A093E2
:100510005402B093550210924D0210924C02109268
:100520004B0210924A021092490262E080914E0200
:100530000E949D0161E070E080E090E00E94150261
:1005400061E080914E020E949D0160E080914E0228
:100550000E94500180914F028551823028F48BE235
:1005600091E10197F1F706C064E170E080E090E06E
:100570000E94150262E080914E020E949D018091CE
:100580005B0290E08230910538F0880F991F880F48
:10059000991F05970197F1F7F89480E00E941001E8
:1005A0006F3F7F4F8F4F9F4F21F410925A027894E4
:1005B00041C081E00E9410016F3F7F4F8F4F9F4FDE
:1005C000A1F38E010F5F1F4F6E018FEBC81A8EEFE4
:1005D000D80A780180E00E941001F70160837183DE
:1005E0008283938381E00E941001F7016483758305
:1005F00086839783F8E0EF0EF11CEC14FD0451F7AD
:10060000789420E030E0F801C080D180E280F3806F
:100610004481558166817781FFEFCF16DF06EF06B3
:10062000FF0631F04F3F8FEF58076807780721F436
:1006300010925A0280E031C0F90183E0F595E79508
:100640008A95E1F7E75BFD4F8081880FC416D506D8
:10065000E606F70608F4816080832F5F3F4F085F4E
:100660001F4F2832310579F620914D0230E040913C
:10067000490280914A0290E0840F911D40914B0203
:10068000840F911D40914C02840F911D99272817CA
:10069000390771F681E080935A02C05CDE4F0FB6D5
:1006A000F894DEBF0FBECDBFDF91CF911F910F91A8
:1006B000FF90EF90DF90CF900895CF92DF92EF926E
:1006C000FF920F931F93CF93DF936C017A018B01FD
:1006D000C0E0D0E0CE15DF0581F0D8016D918D012D
:1006E000D601ED91FC910190F081E02DC6010995B4
:1006F000892B11F02196EECF7E01C701DF91CF91BA
:100700001F910F91FF90EF90DF90CF900895FC0123
:10071000538D448D252F30E0842F90E0821B930B66
:10072000541710F0CF96089501970895FC01918D0C
:10073000828D981761F0828DDF01A80FB11D5D9643
:100740008C91928D9F5F9F73928F90E008958FEFB1
:100750009FEF0895FC01918D828D981731F0828D65
:10076000E80FF11D858D90E008958FEF9FEF0895BC
:10077000FC01918D228D892F90E0805C9F4F821B20
:1007800091098F739927089584E891E00E94B80336
:1007900021E0892B09F420E0822F0895FC01848D4B
:1007A000DF01A80FB11DA35ABF4F2C91848D90E09B
:1007B00001968F739927848FA689B7892C93A08976
:1007C000B1898C91837080648C93938D848D981300
:1007D00006C00288F389E02D80818F7D8083089593
:1007E000EF92FF920F931F93CF93DF93EC0181E081
:1007F000888F9B8D8C8D981305C0E889F98980813D
:1008000085FD26C0F62E0B8D10E00F5F1F4F0F7376
:100810001127E02E8C8DE8120CC00FB607FCFACF22
:10082000E889F989808185FFF5CFCE010E94CE034A
:10083000F1CF8B8DFE01E80FF11DE35AFF4FF082DF
:100840009FB7F8940B8FEA89FB89808180620AC088
:100850009FB7F894EE89FF896083E889F9898081E0
:100860008370806480839FBF81E090E0DF91CF91AF
:100870001F910F91FF90EF900895CF93DF93EC01BC
:10088000888D8823C9F0EA89FB89808185FD05C0B0
:10089000A889B9898C9186FD0FC00FB607FCF5CFEA
:1008A000808185FFF2CFA889B9898C9185FFEDCF32
:1008B000CE010E94CE03E7CFDF91CF91089580E073
:1008C00090E0892B29F00E94C40381110C94000050
:1008D0000895CF93DF93EC0160E08E810E94500178
:1008E00061E08E810E94500160E08E810E94500183
:1008F0008BE891E00197F1F7DF91CF910895CF92C6
:10090000DF92EF92FF920F931F93CF93DF936C01CF
:100910007C0187E0E80EF11CC0E0D0E0062F10E07B
:10092000B8010C2E02C0759567950A94E2F76170C4
:10093000F70181917F010E9450012196C430D105B9
:1009400079F7C601DF91CF911F910F91FF90EF9042
:10095000DF90CF900C946904CF92DF92EF92FF92D8
:100960000F931F93CF93DF93EC01F62E642F8C81AE
:100970000E9450018D818F3F19F060E00E9450016C
:100980008F850F2D10E084FF25C06E0187E0C80E13
:10099000D11CE12CF12CB8010E2C02C07595679585
:1009A0000A94E2F76170F60181916F010E94500193
:1009B000FFEFEF1AFF0A88E0E816F10461F7CE01B5
:1009C000DF91CF911F910F91FF90EF90DF90CF902B
:1009D0000C946904B80184E0759567958A95E1F7F0
:1009E000CE010E947F046F2DCE01DF91CF911F9128
:1009F0000F91FF90EF90DF90CF900C947F0440E038
:100A0000682F8CE592E00C94AC04CF93DF936230B6
:100A100028F090916B02986090936B0260936F0244
:100A20001092700290E4909371028093720290E0B1
:100A3000805C9F4F8093730261E0809160020E940E
:100A40009D01809161028F3F19F061E00E949D013C
:100A500061E0809162020E949D01CCE5D2E09E019E
:100A60002C55324080916B0284FD03C084E090E0FD
:100A700002C088E090E02196281739072CF461E045
:100A80008E810E949D01EBCF8BE39DE00197F1F7F2
:100A900060E0809160020E94500160E080916202FB
:100AA0000E945001809161028F3F19F060E00E9426
:100AB000500180916B0284FD20C063E08CE592E0E0
:100AC0000E947F04CBE4D6E4CE010197F1F763E006
:100AD0008CE592E00E947F042197F1F763E08CE5BA
:100AE00092E00E947F0483E592E00197F1F762E0D3
:100AF0008CE592E00E947F0415C080620E94FF0492
:100B00008BE496E40197F1F780916B0280620E947A
:100B1000FF0483E592E00197F1F780916B02806218
:100B20000E94FF0480916B0280620E94FF0484E0B7
:100B300080936C028CE00E94FF0481E00E94FF041D
:100B40008BE39FE10197F1F782E080936D0286E0ED
:100B5000DF91CF910C94FF04843008F083E09091F2
:100B60006F02891710F08FEF890FE82FF0E0E45A39
:100B7000FD4F848980680C94FF0441E00E94AC041E
:100B800081E090E00895089580E090E008950E944B
:100B9000080D6115710579F0FB0101900020E9F75E
:100BA0003197AF01461B570BDC01ED91FC910280A0
:100BB000F381E02D099480E090E008958F929F9258
:100BC000AF92BF920F931F93CF93DF93CDB7DEB752
:100BD000A1970FB6F894DEBF0FBECDBF19A2423069
:100BE00008F44AE08E010F5D1F4F842E912CA12C3A
:100BF000B12CA50194010E94FB0AE62FB901CA019C
:100C000001501109EA3014F4E05D01C0E95CD8013B
:100C1000EC93232B242B252B61F7B80184E891E07A
:100C20000E94C905A1960FB6F894DEBF0FBECDBFD6
:100C3000DF91CF911F910F91BF90AF909F908F90B8
:100C40000895CF92DF92EF92FF92CF93DF936C01E2
:100C5000990FEE08FF08F7FE13C06DE284E891E0FB
:100C60000E94F003EC0166277727CB016C197D0900
:100C70008E099F094AE00E94DE05C80FD91F06C0F1
:100C80004AE0C701B6010E94DE05EC016EE171E0A9
:100C900084E891E00E94C9058C0F9D1FDF91CF91E0
:100CA000FF90EF90DF90CF9008951F920F920FB6B4
:100CB0000F9211242F933F938F939F93AF93BF93E2
:100CC0008091800190918101A0918201B091830176
:100CD00030917B0123E0230F2D3720F40196A11DD5
:100CE000B11D05C026E8230F0296A11DB11D20935A
:100CF0007B018093800190938101A0938201B09346
:100D0000830180917C0190917D01A0917E01B09141
:100D10007F010196A11DB11D80937C0190937D01FF
:100D2000A0937E01B0937F01BF91AF919F918F916E
:100D30003F912F910F900FBE0F901F9018951F920B
:100D40000F920FB60F9211242F933F934F935F93FF
:100D50006F937F938F939F93AF93BF93EF93FF9383
:100D600084E891E00E94CE03FF91EF91BF91AF9193
:100D70009F918F917F916F915F914F913F912F91B3
:100D80000F900FBE0F901F9018951F920F920FB6E5
:100D90000F9211242F938F939F93EF93FF93E091E2
:100DA0009401F09195018081E0919A01F0919B016D
:100DB00082FD12C0908180919D018F5F8F73209181
:100DC0009E01821751F0E0919D01F0E0EC57FE4F3B
:100DD000958F80939D0101C08081FF91EF919F913C
:100DE0008F912F910F900FBE0F901F9018951F920B
:100DF0000F920FB60F9211242F933F934F935F934F
:100E00006F937F938F939F93AF93BF93EF93FF93D2
:100E100080917A0187FF05C01092850010928400AE
:100E20001BC020917A01022E000C330B80914502E9
:100E300090E02817390784F480917A01082E000C7D
:100E4000990BFC01EE0FFF1F8E0F9F1FFC01EF5D42
:100E5000FD4F808186FD15C080917A018F5F809360
:100E60007A0120917A01022E000C330B8091450209
:100E700090E028173907C4F480917A018C3064F12E
:100E800013C080917A01082E000C990BFC01EE0F23
:100E9000FF1F8E0F9F1FFC01EF5DFD4F808160E003
:100EA0008F730E945001D8CF80918400909185006B
:100EB000049680349C4918F480E49CE905C0809134
:100EC0008400909185000496909389008093880017
:100ED0008FEF80937A013BC0209184003091850090
:100EE00080917A01082E000C990BFC01EE0FFF1F78
:100EF0008E0F9F1FFC01EF5DFD4F81819281820F5C
:100F0000931F909389008093880080917A01082E26
:100F1000000C990BFC01EE0FFF1F8E0F9F1FFC01B1
:100F2000EF5DFD4F808186FF12C080917A01082E0F
:100F3000000C990BFC01EE0FFF1F8E0F9F1FFC0191
:100F4000EF5DFD4F808161E08F730E945001FF9142
:100F5000EF91BF91AF919F918F917F916F915F9131
:100F60004F913F912F910F900FBE0F901F901895AA
:100F7000CF93109287011092860188EE93E0A0E053
:100F8000B0E08093880190938901A0938A01B09387
:100F90008B0184E091E0909385018093840185EC3E
:100FA00090E0909391018093900184EC90E0909375
:100FB00093018093920180EC90E09093950180934F
:100FC000940181EC90E0909397018093960182ECDC
:100FD00090E0909399018093980186EC90E0909333
:100FE0009B0180939A0110929D0110929E01109294
:100FF0009F011092A00110925F0210925E0286E1A2
:1010000091E090935D0280935C0285E080936002A2
:10101000CFEFC093610284E08093620283E080930B
:10102000630282E08093640281E080936502109203
:101030006602109267021092680210926902109282
:101040006A0210926B0261E080E10E9405058CE06B
:1010500080934E028BE080934F02EAEBF0E0E49144
:10106000E0935002E6EAF0E0E491E093510280E878
:101070009EE3A0E0B0E08093560290935702A093C5
:101080005802B0935902809145028C30A0F491E04F
:10109000980F909345028093460290E0FC01EE0F7A
:1010A000FF1F8E0F9F1FFC01EF5DFD4F88EB9BE044
:1010B0009283818302C0C0934602CF9108957894B1
:1010C00084B5826084BD84B5816084BD85B582604D
:1010D00085BD85B5816085BD80916E0081608093FE
:1010E0006E00109281008091810082608093810067
:1010F0008091810081608093810080918000816077
:10110000809380008091B10084608093B1008091D1
:10111000B00081608093B00080917A0084608093F9
:101120007A0080917A00826080937A0080917A00C0
:10113000816080937A0080917A00806880937A0041
:101140001092C10064E084E10E94050561E086E040
:101150000E949D0180E00E94AC0561E271E08CE597
:1011600092E00E94C90581E00E94AC0566E371E04F
:101170008CE592E00E94C90582E00E94AC0567E41C
:1011800071E08CE592E00E94C90583E00E94AC0505
:1011900061E571E08CE592E00E94C90562E0809112
:1011A0004E020E949D012FB7F8948091800190918A
:1011B0008101A0918201B09183012FBF805D974092
:1011C000A109B1098093520290935302A093540253
:1011D000B093550287E380935B0262E08EE00E9449
:1011E0009D0162E08FE00E949D0161E088E00E9425
:1011F0009D01E0919401F091950182E08083E0915E
:101200009001F09191011082E0919201F09193018F
:101210008FEC808310929C01E0919801F0919901EC
:1012200086E08083E0919601F09197018081806152
:101230008083E0919601F09197018081886080839E
:10124000E0919601F0919701808180688083E09120
:101250009601F091970180818F7D808362E671E035
:1012600084E891E00E94C9056EE171E084E891E0B4
:101270000E94C905809146028C3008F051C061E09F
:1012800089E00E949D0180914602E82FF0E09F01D5
:10129000220F331FE20FF31FEF5DFD4F9081907C13
:1012A0009960908310924702109248026CE00E946D
:1012B000F60C9CE0899FB001112440E050E09B01B6
:1012C000240F351FF901EE0FFF1F2E0F3F1FF901ED
:1012D000EF5DFD4F908196FD16C04F5F5F4F4C3024
:1012E000510569F781110FC01092800082E0809350
:1012F00081001092850010928400B19A80916F0055
:10130000826080936F00E0914602F0E0CF01880F89
:10131000991FE80FF91FEF5DFD4F80818064808386
:1013200061E088E00E94500161E086E00E94500187
:1013300064EF71E080E090E00E941502CBE3DFE112
:101340000E944F020E944F0280E10E94D901BC011D
:10135000990F880B990B0E94CF0B20E030E040EAF8
:1013600050E40E94840C20E030E040E85AE30E9400
:10137000840C20E030E040E650E40E94840C6B01D5
:101380007C014B015C0169E671E084E891E00E9418
:10139000C905A7019601C701B6010E94F10C882377
:1013A00019F06EE671E01AC026013701E89477F86B
:1013B0002FEF3FEF4FE75FE7C301B2010E94F10C4F
:1013C000811111C02FEF3FEF4FE75FE7C301B2017B
:1013D0000E94990B18163CF462E771E084E891E0F2
:1013E0000E94C90578C02FEF3FEF4FE75FE4C701C8
:1013F000B6010E947F0C18161CF466E771E0EECF70
:101400002FEF3FEF4FE75FECC701B6010E94990B4A
:1014100087FDF3CF20E030E0A901C701B6010E94AB
:10142000990B87FF0BC06DE284E891E00E94F00306
:1014300046015701B7FAB094B7F8B0942AE037EDF7
:1014400043EA5BE3C501B4010E942D0B4B015C0133
:101450000E949E0B6B017C010E94CD0B9B01AC0195
:10146000C501B4010E942C0B4B015C014AE0C7018D
:10147000B6010E94DE056EE284E891E00E94F0036E
:1014800020E030E040E251E4C501B4010E94840C48
:101490004B015C010E949E0B6B01E12CF12C4AE098
:1014A000C701B6010E94DE05C701B6010E94CD0B3F
:1014B0009B01AC01C501B4010E942C0B20E030E07F
:1014C00040E251E40E94840C0E949E0B80E090E078
:1014D0004AE00E94DE0560E273E080E090E00E9456
:1014E000150281E00E94FF04CE010197F1F78EE022
:1014F0000E94D9017C018FE00E94D9016C01C701D3
:101500000E9421066AE070E080E090E00E941502EF
:10151000C6010E94210668EC70E080E090E00E9425
:10152000150284EDE81683E0F8067CF08AE590E089
:101530000E948C0060E088E00E94500168EE73E039
:1015400080E090E00E94150209C09BECE91693E050
:10155000F90624F461E088E00E94500184EDC81689
:1015600083E0D8067CF080E090E00E948C0060E090
:1015700088E00E94500168EE73E080E090E00E94F5
:10158000150204C061E088E00E9450010E945F04DF
:10159000D7CE052E97FB1EF400940E94E00A57FD5B
:1015A00007D00E94FB0A07FC03D04EF40C94E00A1B
:1015B00050954095309521953F4F4F4F5F4F08957F
:1015C00090958095709561957F4F8F4F9F4F0895AF
:1015D0000E941D0BA59F900DB49F900DA49F800DA0
:1015E000911D11240895B7FF0C94E80A0E94E80A9F
:1015F000821B930B0895A1E21A2EAA1BBB1BFD01AF
:101600000DC0AA1FBB1FEE1FFF1FA217B307E407E1
:10161000F50720F0A21BB30BE40BF50B661F771F39
:10162000881F991F1A9469F7609570958095909519
:101630009B01AC01BD01CF010895A29FB001B39FF2
:10164000C001A39F700D811D1124911DB29F700DCB
:10165000811D1124911D08955058BB27AA270E946F
:10166000440B0C94450C0E94370C38F00E943E0C41
:1016700020F039F49F3F19F426F40C94340C0EF446
:10168000E095E7FB0C942E0CE92F0E94560C58F3C2
:10169000BA17620773078407950720F079F4A6F557
:1016A0000C94780C0EF4E0950B2EBA2FA02D0B01A4
:1016B000B90190010C01CA01A0011124FF27591B97
:1016C00099F0593F50F4503E68F11A16F040A22F9D
:1016D000232F342F4427585FF3CF4695379527950E
:1016E000A795F0405395C9F77EF41F16BA0B620B0D
:1016F000730B840BBAF09150A1F0FF0FBB1F661F54
:10170000771F881FC2F70EC0BA0F621F731F841F96
:1017100048F4879577956795B795F7959E3F08F0BC
:10172000B0CF9395880F08F09927EE0F979587957E
:1017300008950E940A0C08F481E008950E945E0C4E
:1017400088F09F5798F0B92F9927B751B0F0E1F082
:10175000660F771F881F991F1AF0BA95C9F714C032
:10176000B13091F00E94780CB1E008950C94780C9F
:10177000672F782F8827B85F39F0B93FCCF386956B
:1017800077956795B395D9F73EF4909580957095C8
:1017900061957F4F8F4F9F4F0895E89409C097FB45
:1017A0003EF490958095709561957F4F8F4F9F4F38
:1017B0009923A9F0F92F96E9BB279395F69587957C
:1017C00077956795B795F111F8CFFAF4BB0F11F43F
:1017D00060FF1BC06F5F7F4F8F4F9F4F16C08823E6
:1017E00011F096E911C0772321F09EE8872F762F1C
:1017F00005C0662371F096E8862F70E060E02AF05D
:101800009A95660F771F881FDAF7880F9695879548
:1018100097F90895990F0008550FAA0BE0E8FEEF1D
:1018200016161706E807F907C0F012161306E407A4
:10183000F50798F0621B730B840B950B39F40A269D
:1018400061F0232B242B252B21F408950A2609F47B
:10185000A140A6958FEF811D811D089597F99F677F
:1018600080E870E060E008959FEF80EC0895002428
:101870000A941616170618060906089500240A94F5
:1018800012161306140605060895092E0394000C7B
:1018900011F4882352F0BB0F40F4BF2B11F460FF0A
:1018A00004C06F5F7F4F8F4F9F4F089557FD905833
:1018B000440F551F59F05F3F71F04795880F97FB14
:1018C000991F61F09F3F79F08795089512161306CE
:1018D0001406551FF2CF4695F1DF08C016161706FD
:1018E0001806991FF1CF8695710561050894089532
:1018F000E894BB2766277727CB0197F908950E94C4
:101900000A0C08F48FEF08950E94970C0C94450C74
:101910000E94370C38F00E943E0C20F0952311F005
:101920000C942E0C0C94340C11240C94790C0E9401
:10193000560C70F3959FC1F3950F50E0551F629FB1
:10194000F001729FBB27F00DB11D639FAA27F00D18
:10195000B11DAA1F649F6627B00DA11D661F829F3F
:101960002227B00DA11D621F739FB00DA11D621F24
:10197000839FA00D611D221F749F3327A00D611D41
:10198000231F849F600D211D822F762F6A2F112423
:101990009F5750409AF0F1F088234AF0EE0FFF1F56
:1019A000BB1F661F771F881F91505040A9F79E3FAD
:1019B000510580F00C942E0C0C94790C5F3FE4F3ED
:1019C000983ED4F3869577956795B795F795E79503
:1019D0009F5FC1F7FE2B880F911D9695879597F90C
:1019E00008950E940A0C880B990B0895991B79E0C1
:1019F00004C0991F961708F0961B881F7A95C9F79F
:101A000080950895EE0FFF1F0590F491E02D099445
:0E1A100081E090E0F8940C940D0DF894FFCF57
:101A1E0000000000F0035D0387033D04B803960346
:101A2E00AA0300000000BD055D03C405C3050D0A31
:101A3E000054656D703A3234432C52656C2D4875E6
:101A4E006D3A36302500736F696C206D6F69737453
:101A5E007572653A3930007068203A2D20372E3570
:101A6E00004175746F6D617465642073797374656C
:101A7E006D005265616479200020706820006E61EF
:0A1A8E006E00696E66006F76660058
:107E0000112484B714BE81FFF0D085E080938100F7
:107E100082E08093C00088E18093C10086E0809377
:107E2000C20080E18093C4008EE0C9D0259A86E02C
:107E300020E33CEF91E0309385002093840096BBD3
:107E4000B09BFECF1D9AA8958150A9F7CC24DD24C4
:107E500088248394B5E0AB2EA1E19A2EF3E0BF2EE7
:107E6000A2D0813461F49FD0082FAFD0023811F036
:107E7000013811F484E001C083E08DD089C08234E0
:107E800011F484E103C0853419F485E0A6D080C0E4
:107E9000853579F488D0E82EFF2485D0082F10E0AE
:107EA000102F00270E291F29000F111F8ED06801E7
:107EB0006FC0863521F484E090D080E0DECF843638
:107EC00009F040C070D06FD0082F6DD080E0C81688
:107ED00080E7D80618F4F601B7BEE895C0E0D1E017
:107EE00062D089930C17E1F7F0E0CF16F0E7DF06D8
:107EF00018F0F601B7BEE89568D007B600FCFDCFD4
:107F0000A601A0E0B1E02C9130E011968C91119780
:107F100090E0982F8827822B932B1296FA010C0160
:107F200087BEE89511244E5F5F4FF1E0A038BF0790
:107F300051F7F601A7BEE89507B600FCFDCF97BE46
:107F4000E89526C08437B1F42ED02DD0F82E2BD052
:107F50003CD0F601EF2C8F010F5F1F4F84911BD097
:107F6000EA94F801C1F70894C11CD11CFA94CF0C13
:107F7000D11C0EC0853739F428D08EE10CD085E9AC
:107F80000AD08FE07ACF813511F488E018D01DD067
:107F900080E101D065CF982F8091C00085FFFCCF94
:107FA0009093C60008958091C00087FFFCCF809118
:107FB000C00084FD01C0A8958091C6000895E0E648
:107FC000F0E098E1908380830895EDDF803219F02E
:107FD00088E0F5DFFFCF84E1DECF1F93182FE3DFCA
:107FE0001150E9F7F2DF1F91089580E0E8DFEE27F6
:047FF000FF270994CA
:027FFE00040479
:0400000300007E007B
:00000001FF
